:020000040002F8
:1000000098390020FD0102000F02020011020200D7
:1000100000000000000000000000000000000000E0
:1000200000000000000000000000000013020200B9
:10003000000000000000000015020200170202008C
:1000400019020200190202001D2602001902020014
:100050001902020000000000F52A02001902020045
:10006000190202001902020019020200190202001C
:10007000190202001902020019020200190202000C
:10008000190202009B20020019020200190202005C
:10009000BD200200190202007F18020019020200AE
:1000A0001902020019020200000000000000000016
:1000B0000000000000000000000000000000000040
:1000C00000F002F800F04FF80CA030C808382418EF
:1000D0002D18A246671EAB4654465D46AC4201D180
:1000E00000F041F87E460F3E0FCCB6460126334263
:1000F00000D0FB1AA246AB46334318470034000039
:1001000020340000103A02D378C878C1FAD85207D8
:1001100001D330C830C101D504680C6070470000BD
:100120000023002400250026103A01D378C1FBD813
:10013000520700D330C100D50B60704710B5782945
:1001400002D102F099FF10BD732902D103F0FEF82D
:1001500010BD002010BD1FB50098019903F039F8BB
:100160001FBD10B510BD03F01AF91146FFF7F3FFDC
:1001700000F03BFC03F032F903B4FFF7F2FF03BCDD
:1001800003F062F9401E00BF00BF00BF00BF00BF08
:1001900000BF00BF00BF00BF00BF00BF00BFF1D164
:1001A00070470000401E00BF00BF00BF00BF00BF7F
:1001B00000BF00BF00BF00BF00BF00BF00BFF1D144
:1001C0007047000070B505460C46164602E00FCC9D
:1001D0000FC5103E102EFAD2082E02D303CC03C551
:1001E000083E042E07D301CC01C5361F03E0217859
:1001F0002970641C6D1C761EF9D270BD0A48026815
:1002000003210A4302600948804709480047FEE786
:10021000FEE7FEE7FEE7FEE7FEE7000005480649C9
:10022000064A074B7047000024050040E90202001F
:10023000C100020098290020983900209831002040
:100240009831002032483349086070473248008CAA
:10025000C0B2012812D13048808C0007000F00285E
:100260000CD12D48806AF0210840402806D12A4848
:10027000C06A0840002801D1012070470020FCE737
:100280002548008CC0B201282CD12348808C00075F
:10029000000F002826D12048806AF021084000285D
:1002A00006D11D48C06A0840002801D101207047CE
:1002B0001948806AF0210840102806D11648C06A03
:1002C0000840002801D10120F1E71348806AF0219D
:1002D0000840302806D11048C06A0840002801D1E3
:1002E0000120E4E70020E2E710B5FFF7C9FF00288E
:1002F00005D00A480A494860C8130A498861FFF7CF
:10030000A5FF002802D001200749886010BD000029
:100310000024F40000240020C00F00F0DFFF07C01D
:1003200000050040006C00400006004000F085FB26
:1003300004460D462A462146FE48FFF7F7FF38B52A
:1003400000BF0020FC4B05220221009001F0BAFE04
:10035000044600BF2546002D05D000BFF7A2992115
:100360002846FFF7E3FF00BF00BF38BDFEB500BF62
:100370006846007801090901491C00916846007827
:10038000F02188431030009000BF0926304602F06B
:10039000A7FD0546EC48006AC3B2ECA2EDA12846D1
:1003A00002F0F6FD0922294668467CDF044600BFBC
:1003B0002746002F05D000BFE0A2B1213846FFF745
:1003C000B5FF00BF00200190029010216846818097
:1003D0003C21C18000210181FF219131418101A88F
:1003E0007ADF044600BF2746002F05D000BFD3A206
:1003F000BB213846FFF79AFF284602F0A2FDFEBD5A
:1004000030B5A1B005210291D44800680190D448CC
:100410000178684681713C2112A802F0B8FE0220E2
:100420001290002110A841730121018202A91591A7
:100430003C2103A802F0ABFE01216846018501A919
:100440000B9103A912A800F0A8FF044600BF25469F
:10045000002D05D000BFB9A2D8212846FFF766FFBE
:1004600000BF21B030BD70B505460C461646207859
:1004700002F06BFA70BD38B500200090B9480090CA
:100480006946B74800F061FC044600BF2546002DD0
:1004900005D000BFA9A2FB212846FFF747FF00BFF8
:1004A00038BD1E20B04908800846807840084000CA
:1004B000401C88700846807802218843AA498870C9
:1004C000084680781C2188430C30A749887008466C
:1004D000807820218843A44988700720C8701020A4
:1004E0000871704770B505462868002810D13B2177
:1004F0009E48008876DF044600BF2646002E06D0C0
:1005000000BF8EA2FF2120313046FFF70FFF00BF52
:1005100070BD044600BF89A2FF212B312046FFF7A2
:1005200005FF30B587B01C21684602F030FE002080
:10053000009005204004019080100290032168463D
:1005400001730021C1810174894805908948069092
:10055000684600F0BEFF044600BF2546002D06D0C9
:1005600000BF76A2FF2142312846FFF7DFFE00BF21
:1005700007B030BD30B585B01421684602F007FEE3
:1005800000216846017000200190684601724021F8
:100590000182B421418273DF044600BF2546002D4D
:1005A00006D000BF65A2FF2157312846FFF7BEFEE7
:1005B00000BF05B030BD10B50EE16F4802F0BEF9C6
:1005C00000281AD16C4801786C4802880088401CC9
:1005D0006A4B18806A4881541846008814280BDB3F
:1005E000002068490880012067490870BB2002F09C
:1005F000ACF9002061490880E1E0634800780128F7
:10060000FAD15F495F480088085C604908705C491E
:100610005C480088401C085C5C494870584959484F
:100620000088801C085C59498870554955480088E5
:10063000C01C085C5549C870514952480088001DCB
:10064000085C524908714E494E480088401D085CBC
:100650004E4948714A494B480088801D085C4B4907
:100660008871474947480088C01D085C4749C871E0
:100670004349444800880830085C444908724049AE
:10068000404800880930085C404948723C493D4870
:1006900000880A30085C3D49887239493948008829
:1006A0000B30085C3949C8723549364800880C302F
:1006B000085C364908733249324800880D30085CBE
:1006C000324948732E492F4800880E30085C2F4964
:1006D00088732B492B4800880F30085C2B49C8735E
:1006E0002749284800881030085C284908742449A4
:1006F000244800881130085C244948742049214866
:1007000000881230085C214988741D491D48008802
:100710001330085C1D49C8741422114800F055FBC1
:1007200004460A20FFF72EFD002C36D10020164982
:1007300008702DE0EFBEADDE5C2500202E2E5C6D36
:1007400061696E2E63000000400000104D44535F4D
:1007500046425F002573257800000000B034020097
:10076000A024002067040200042400200A240020A2
:10077000E5040200130502001C24002018240020B8
:10078000D02400201A2400201F240020BC24002094
:10079000AE490880AA2002F0D8F8AD48844204D0BF
:1007A000082C02D0AB48844200D116E0002C06D0C1
:1007B00000BFA94AFF21A4312046FFF7B7FD08205A
:1007C000A6490969C140C907C90FA5480160006869
:1007D000002801D100F031F9EFE600BF10BDF8B5F7
:1007E00005462888142851D008DC01280DD010288F
:1007F0000CD0112814D0132873D11BE017283FD038
:10080000192870D052287ED127E07DE0A88895492C
:100810000880AA2002F099F800209349088073E02C
:100820000020C0438F490880452002F08EF8FFF772
:10083000A1FE69E08D4A00218A4800887FDF0446D6
:1008400000BF2746002F06D000BF834AFF21D531C5
:100850003846FFF76BFD00BF56E000221146814885
:100860000088A9DF044600BF2746002F06D000BF3E
:10087000794AFF21DA313846FFF758FD00BF43E0DF
:100880003222A91D7A4802F023FC3DE0784EB61DC5
:100890003188E889814211D10022314671480088AF
:1008A00081DF044600BF2746002F06D000BF6A4AFA
:1008B000FF21E6313846FFF739FD11E000221146ED
:1008C0006848008881DF044600BF2746002F06D015
:1008D00000BF614AFF21EC313846FFF727FD00BF1A
:1008E00012E010E0FFE7A87900280BD100BF2746EF
:1008F000002F06D000BF584AFF21F5313846FFF7D8
:1009000015FD00BF00E000BF00BFF8BD10B50446F4
:10091000204600F0B2FE2146564800F0F3F920468A
:10092000FFF75DFF10BD70B500BF00235022524994
:10093000082000F05CFF054600BF2E46002E06D0C2
:1009400000BF454A852189003046FFF7EFFC00BF14
:1009500000BF4A4800F081FF044600BF2546002D35
:1009600005D000BF3C4A46492846FFF7DFFC00BFE0
:1009700070BD08B50168012902D00168022909D1BA
:10098000404A01681160114642684A6009683D4961
:100990004968009108BD30B58BB03B4B0FCB07AC1D
:1009A0000FC400BF00200690384802900120039039
:1009B00037480490FF200130059006A80323354AEC
:1009C00002A9009007A801F0A1FE044600BF00BFE5
:1009D0002546002D06D000BF1F4A29492D31284643
:1009E000FFF7A4FC00BF0BB030BDFFF7A8FCFFF77A
:1009F000D2FFFFF798FFFFF7B9FCFFF73CFDFFF7C9
:100A0000FFFCFFF78EFDFFF74CFD082000210029B9
:100A100008D1002205231B07072424021B19840088
:100A20001A5103E0012282400C4B9A6100BFFFF78C
:100A3000A1FD00BFFFF7BFFDFCE7BFF34F8F1648D6
:100A40001649C860BFF34F8F00BFFEE71A2400208D
:100A500003300000013400003C0702000005005094
:100A6000142400200A24002018240020042400203C
:100A700074270020A0240020A82700200D090200D0
:100A80001902000020240020B43402002824002091
:100A9000F8270020730902000400FA0500ED00E0C9
:100AA0008A88828270470022D2438282704770B562
:100AB00004460E46B51D2988208A814213D1288B11
:100AC000022810D100BF00BFA97EEA7E12021143A6
:100AD0000846C107C90F002902D00120A0750FE008
:100AE0000020A0750CE02888A188884208D1A06960
:100AF000002805D02A8B29461A312046A369984739
:100B000070BD30B58FB004460D460020079000BF81
:100B10006846007F01090901491C68460177007F8A
:100B2000F021884310306946087700BF00BF68464F
:100B3000407F01090901491C68464177407FF02147
:100B4000884310306946487700BF6846807F062199
:100B50008843811C684681771C2108A802F017FB96
:100B600008A8007810218843411808A801700020C7
:100B700009900B900C9007A80D9000200E90217802
:100B800068468171032181800020009000BF684683
:100B9000007801090901491C684601700078F021BC
:100BA000884310306946087000BF00BF684640782F
:100BB00001090901491C684641704078F0218843C9
:100BC00010306946487000BF684680780621884327
:100BD000811C6846817080780821884301466846F8
:100BE0008170807810218843014668468170807842
:100BF00041084900491C68468170142102A802F08E
:100C0000C6FA01A8029068460390012101820021E2
:100C1000418214218182608823460C3302AA08A9EC
:100C2000A2DF0FB030BD30B58FB004460D461C2199
:100C300008A802F0ACFA08A80078082188434118F7
:100C400008A80170007804218843011D08A80170DC
:100C5000002009900B900C900D900E902178684622
:100C60008172022101810020019000BF6846007955
:100C700001090901491C684601710079F021884386
:100C800010306946087100BF00BF6846407901090D
:100C90000901491C684641714079F02188431030B0
:100CA0006946487100BF6846807906218843811CE7
:100CB00068468171807908218843014668468171C0
:100CC0008079102188430146684681718079410806
:100CD0004900491C68468171142103A802F057FAA3
:100CE00002A8039001A80490012168468182002196
:100CF000C182142101836088231D03AA08A9A2DFF1
:100D00000FB030BD70B505460C46002D01D0002C4B
:100D100000D170BD2088102804D0112807D0502899
:100D20000FD109E021462846FFF7BAFE0AE0214626
:100D30002846FFF7B8FE05E021462846FFF7B7FE34
:100D400000E000BF00BF00BFE3E770B586B0044617
:100D50000E46334B0FCB01AD0FC5002C01D0002E3A
:100D600002D10E2006B070BD0020C043A0823068C2
:100D7000A0610020A075214601A862DF0546002D74
:100D800001D02846EEE721786846817501218182ED
:100D9000A21C05A90120A0DF0546002D01D0284690
:100DA000E0E731462046FFF7ACFE0546002D01D0B6
:100DB0002846D7E731462046FFF735FF0546002D88
:100DC00001D02846CEE70020CCE737B584B00446F2
:100DD0000D46002C02D10E2007B030BDA08A11496B
:100DE000884202D0A07D002801D10820F4E768469F
:100DF000008B142801DD0720EEE700200090019011
:100E000002900390A18968460180039506A802908C
:100E1000012168468170A08A6946A6DFDCE70000F0
:100E2000C4340200FFFF0000F7B584B004460F464B
:100E300006980678B01C1F2803DC2079801C1F2828
:100E400002DD0C2007B0F0BD1F20801B801E85B284
:100E50000295B11C781802A97DDF03900398002841
:100E600001D00398EEE72068022808D1684600897F
:100E7000A84204DC09200190684605890BE008209F
:100E800001902079002804D02079A84201DC25793E
:100E900001E068460589681CC2B23046711CCEB2BA
:100EA0003A543046721CD6B20199395406980178EA
:100EB000A81C0818C1B2069801700020C2E7F8B556
:100EC00005460C462078001D1F2801DD0C20F8BDCA
:100ED000684679DF0646002E01D03046F7E7032149
:100EE0002278501C2070A95419212278501C20709F
:100EF000A954207841196846008800F08BFA2178BF
:100F0000401820700020E2E7F8B505460F46164667
:100F10001C466868002801D10720F8BD2078801C95
:100F2000298840181F2801DD0C20F6E72878401C8E
:100F3000C1B22278501C2070B1542178481C207016
:100F400077542A8823789819696802F0C1F82078C4
:100F50002978401820700020DFE730B5034610786C
:100F6000C01C1F2801DD0C2030BD02241578681C30
:100F700010704C550A241578681C10704C55157863
:100F8000681C10704B550020EEE7FFB587B0064691
:100F90001D46109C0020069020780590002747E011
:100FA000B900706841180A88684602814988418101
:100FB000002203A902A864DF04900498002802D04C
:100FC00004980BB0F0BD6846017B099881422ED190
:100FD0000698002801D0002000E00220019020782F
:100FE0006946097B4118019808181F2801DD0C206B
:100FF000E7E70698002809D12078401C2070227865
:10100000511C08982170A85401200690207842199C
:1010100003A902A864DF04900498002801D0049872
:10102000CFE720786946097B4018207000BF7F1CFD
:101030003088B842B4DC0698002806D0217805989C
:10104000401C081AC1B2059829540020B9E7FFB521
:1010500081B0074615460A9E009602223846049B38
:101060000299FFF792FF0446002C02D0204605B0FB
:10107000F0BD0096102229463846049BFFF785FFF5
:101080000446002C01D02046F1E70020EFE701469E
:101090000888062808DB08881922D201904205DD5D
:1010A0000888E14A904201D0072070474888062806
:1010B00008DB48881922D201904205DD4888DA4AC7
:1010C000904201D00720F0E70888D74A904208D024
:1010D0004888904205D008884A88904201DD072060
:1010E000E3E70020E1E7F8B506460D461446207810
:1010F000801D1F2801D90C20F8BD3046FFF7C7FF1F
:101100000746002F01D03846F6E705212278501C0B
:101110002070A95412212278501C2070A9542278E2
:101120005119308800F076F9217840182070227823
:101130005119708800F06EF9217840182070002055
:10114000DAE7F8B505460E4614462879801CC7B282
:101150002078801CC0191F2801DD0C20F8BD781CE8
:10116000C1B22278501C2070B154FF212278501C4B
:101170002070B15422789119288800F04BF9217819
:1011800040182070A88800280EDDA868002801D12A
:101190000720E3E7AA8823789819A96801F098FF47
:1011A00020782979401820700020D7E7FEB507463F
:1011B0000E461446786B002801D10720FEBD0020A2
:1011C000019032E0796B0C22019850430D18287978
:1011D000801CC0B200900098401CC1B22278501C04
:1011E0002070B15416212278501C2070B1542278FE
:1011F0009119288800F00EF9217840182070A888ED
:1012000000280EDDA868002801D10720D6E7AA88AB
:1012100023789819A96801F05BFF20782979401894
:1012200020700198401CC0B201903820C15D019827
:101230008142C7DC0020C1E7F8B504460F461646D8
:101240000025002030702068002809D03246394639
:101250002046FFF7E9FD0546002D01D02846F8BDE0
:101260006079002808D031463846FFF728FE054649
:10127000002D01D02846F2E7208900280BDD3346F7
:101280003A46012120460830FFF73EFE0546002D74
:1012900001D02846E3E7206900280BD0002021690F
:1012A000085632463946FFF758FE0546002D01D054
:1012B0002846D4E7A08A00280CDD3B4606220221FE
:1012C000204614300096FFF7C2FE0546002D01D0DF
:1012D0002846C4E7A08B00280CDD3B4607220321EB
:1012E00020461C300096FFF7B2FE0546002D01D0C7
:1012F0002846B4E7A08C00280CDD3B4615221421BB
:10130000204624300096FFF7A2FE0546002D01D0AE
:101310002846A4E7E06A002809D032463946E06A48
:10132000FFF7E1FE0546002D01D0284697E7206B28
:10133000002809D032463946206BFFF702FF0546E8
:10134000002D01D028468AE73820005D002809DDFD
:10135000324639462046FFF729FF0546002D01D0C9
:1013600028467CE728467AE701460889002808D005
:10137000C868002805D0C8680078042210400028FA
:1013800001D1072070470020FCE7014608890028AA
:1013900001DD072070470020FCE7F3B593B00D4650
:1013A0000021129111911398002814D01398FFF77F
:1013B000DBFF0446002C02D0204615B0F0BD12AA77
:1013C00009A91398FFF738FF0446002C01D02046E6
:1013D000F3E709AE00E00026002D13D02846FFF702
:1013E000D4FF0446002C01D02046E6E711AA01A94B
:1013F0002846FFF721FF0446002C01D02046DCE7F9
:1014000001AF00E0002710A803793A46017A304680
:1014100072DFD2E702460A70FF200002104000127D
:101420004870022070470000FFFF00000146488816
:10143000B74A1288904206DB4888B54A52889042E3
:1014400001DC012070470020FCE738B50546B148B3
:101450000088B14988423BD0B0480078401CAF4971
:101460000870AF48007B097888420FDBA849A9487B
:10147000008875DF0446002C07D0A9488069002841
:1014800003D0A74881692046884721E00020A3496E
:101490000870A348007C00280FD03B219D4800889D
:1014A00076DF0446002C07D09D488069002803D0D1
:1014B0009B4881692046884700BF994840690028B9
:1014C00006D000200090964841696846884700BFD2
:1014D00038BD70B505461C2229469148FEF772FEBC
:1014E000002090490870286800280BD008228848FE
:1014F000296801F0EDFD86487ADF0446002C08D00B
:10150000204670BD82487BDF0446002C01D0204677
:10151000F7E70020C0437F49088000207F4908701A
:10152000814A0021814800F048FEEAE710B57F4873
:10153000006800F0BAFE10BD38B57D48FFF776FFB1
:10154000002829D17748007800280AD074484069DB
:10155000002820D0002000907148416968468847E3
:1015600019E06E480078002802D16D48456801E016
:101570006B488568002229466C48006800F064FECC
:101580000446002C07D066488069002803D06448D0
:101590008169204688470AE061484069002806D0F2
:1015A000012000905E4841696846884700BF0020DE
:1015B0005C49087038BD10B50446A08855490880BC
:1015C000082221460E315A4801F082FD002053497D
:1015D00008705348C089002801D1FFF7ADFF10BD46
:1015E00070B505460020C0434A49088000204B4999
:1015F00008704E48006800F058FE0446002C07D0E2
:1016000047488069002803D04548816920468847BB
:1016100070BD70B50546AC1D20884149C989884216
:1016200020D1208B02281DD100BF00BFA17EE27E09
:10163000120211430846C107C90F002902D0FFF763
:101640007BFF0FE03948006800F02FFE0646002EB1
:1016500007D033488069002803D03148816930467B
:10166000884700BF70BD10B504460822A11D304850
:1016700001F02EFDFFF760FF10BD10B50446208875
:10168000102806D0112808D012280ED0502810D1CA
:1016900007E02046FFF78FFF0CE02046FFF7A0FF92
:1016A00008E02046FFF7B5FF04E02046FFF7DBFF28
:1016B00000E000BF00BF10BD38B504460822214637
:1016C000134801F005FD12487ADF0546002D1CD1B4
:1016D0001748FFF7ABFE00280BD101201149087015
:1016E0000B490C48008875DF054601200B4908703E
:1016F0000BE00B484069002806D001200090084804
:1017000041696846884700BF0025284638BD00006B
:101710002C24002036240020FFFF00003424002069
:10172000F8280020442400204B140200402400200C
:101730003824002070B506460C461546294620463A
:10174000FEF7F6FD70BDF8B55A480078002800D1C4
:10175000F8BD59480068002801D1012000E00020B0
:10176000054656480068002801D1012000E000200D
:10177000064600BF002D14D168464EDF0446052CF6
:1017800001D101250CE0002C06D000BF4CA2612144
:101790002046FEF7CBFD03E04749009809688847DB
:1017A00000BF002E1AD15148008800906946504869
:1017B000006860DF0446052C01D101260DE0002CF5
:1017C00006D000BF3EA278212046FEF7AFFD04E020
:1017D0004748006839490968884700BF002D02D092
:1017E000002E00D000E0C5E700BF00BFB0E7FFB5A6
:1017F00081B00C4616461F46002C02D1072005B0CA
:10180000F0BD20468107890F002901D1012100E0A8
:101810000021002901D10720F1E735480460334851
:101820000680344807603449019810DF0546002DD2
:1018300001D02846E3E701201E490870162023DF67
:10184000DDE710B511DF0446002C01D0012000E0D7
:10185000002018490870204610BD0146002901D11A
:101860000E207047154801600020FAE70146002964
:1018700001D10E207047104801600020FAE770B5D2
:101880001C480068002811D01A48006880470446A8
:1018900000BF2546002D07D000BF09A2FF2113314C
:1018A0002846FEF743FD00BF00BF01E0FFF74BFFF6
:1018B00070BD000052240020582400205424002031
:1018C0002E2E5C2E2E5C536F757263655C73645FA5
:1018D000636F6D6D6F6E5C736F667464657669635C
:1018E000655F68616E646C65722E63005024002031
:1018F0004C240020482400203517020010B5002891
:1019000019DAFA4A03071B0F083B9B089B00D258C1
:101910008307DC0EFF23A3409A438B071B0E84072B
:10192000E40EA3401A43F14B0407240F083CA4081B
:10193000A4001A5118E0EE4A03231B02D2188308B0
:101940009B00D2588307DC0EFF23A3409A438B07EA
:101950001B0E8407E40EA3401A43E54B0324240224
:101960001B198408A4001A5110BD10B50446E148A3
:10197000846003211120FFF7C1FF10BD10B50120C5
:101980000004DD494860DC4940394860112000F01E
:10199000D7FC112000F0C6FC0120D84908602F2098
:1019A000FEF700FC10BD10B5112001218140D04A86
:1019B0008032116000BF01200004CF498860CE4909
:1019C000403988600120CD4948602F20FEF7EAFBAE
:1019D00010BDF0B5024628205043C94B1B68C11802
:1019E000C8480068401C002802D1C648026059E07F
:1019F000C4488B68006828246043C14C24680019DF
:101A00008068834217D8BF48006828235843BC4BDE
:101A10001B68C01880688B68C31ABA4800682824FD
:101A20006043B74C246800198360B6480068486278
:101A3000B448026036E08B68B24D2C6828680DE02F
:101A400028254543AE4E3668AD19AD685B1B04468C
:101A500028254543AA4E3668AD19686A451C002DF5
:101A600007D028254543A64E3668AD19AD689D427E
:101A7000E6D3451C002D0CD028254543A04E3668E2
:101A8000AD19AD68EE1A282545439D4F3F68ED1905
:101A9000AE608B60486228256543994E3668AD1963
:101AA0006A6200BFF0BD70B50246964C21680846D8
:101AB00009E0904200D109E0014628244443904DBA
:101AC0002D686419606A441C002CF2D100BF441CCC
:101AD000002C00D170BD814209D18A4C2468282590
:101AE0006C43874D2D686419646A864D2C602824E8
:101AF0004443834D2D686419A36828244443804DD2
:101B00002D686419656A28244C437D4E3668A419F3
:101B1000656228244C437A4D2D686419606A441C20
:101B2000002C0CD028244443754D2D686419A468FA
:101B3000E51828244443724E3668A419A56000BFF6
:101B4000C8E710B5112000F0F4FB10BD10B514204B
:101B500000F0EFFB10BD70B504466B48006800282C
:101B600013D0694A216AE06912689047054600BFB0
:101B70002E46002E07D000BF64A2FF21553130460B
:101B8000FEF7D4FB00BF00BF02E0E169206A88478E
:101B900070BDF8B55B480068401C00283AD00027AB
:101BA00000F000FC044662480168204600F0FDFB9E
:101BB00006465448056811E02820684350490968E2
:101BC0004418A068B04200D90BE0A068361AA0689B
:101BD000C719656A2046FFF7BEFF00BF681C0028D2
:101BE000EAD100BF5348007853490978884209D1A7
:101BF00051480078401CC0B24F490870022801D1FA
:101C0000002008704C48007880004C490F50FFF7C6
:101C10009DFF00BFF8BD014646480078464A12784D
:101C200090421DD043480078401C424A1070104634
:101C30000078022801D1002010703E480078800012
:101C40003E4A105808603A4A086812688018384AB4
:101C50001060104600680002000A10600120704702
:101C60000020086000BFFAE7FEB526480068019032
:101C70003348007800906EE00098C0003149096850
:101C80004418257863E01820684361680F18681CC1
:101C9000C5B2A078A84200D100253868022802D039
:101CA000032851D10EE02821786848431449096877
:101CB0004618307E002804D07868FFF7F4FE002034
:101CC000307642E00CE00F490968282251430C4A63
:101CD00012688818002101760A4A416A116000BF23
:101CE00008480068401C0028EDD12EE01CED00E003
:101CF00000E100E0001501404013014000100140E8
:101D0000602400206C240020802400202E2E5C2ED5
:101D10002E5C536F757263655C6170705F636F6D8D
:101D20006D6F6E5C6170705F74696D65722E6300BB
:101D3000702400207C2400207D24002074240020B6
:101D4000642400206824002000BF00BF00BF60782A
:101D5000A84298D100BF0098411EC9B20091002846
:101D60008AD1FE4801680198814201D00120FEBD60
:101D70000020FCE7F0B50346002426E0F74E366865
:101D800028277E43F64F3F68F01986689E4203D9A4
:101D90008668F61A86601DE086689B1B8668341983
:101DA000002686600676ED4E3568EC4F466A3E604A
:101DB0004669002E08D00E193602360AC6604669FA
:101DC000066116684662156000BFE4480068401C62
:101DD0000028D3D100BFF0BDFEB50746DF4800683C
:101DE0000290E048007801906BE00198C000DE4965
:101DF000096845185DE0781C002807D03E46282079
:101E00007043D74909684418676A23E02978182382
:101E100059436A6850182978491C29702978AA788A
:101E2000914201D100212970466828217143CC4A92
:101E300012688C180168012902D1217E002900D086
:101E400037E08168E160C1682161016961614169D0
:101E5000216200BFC549E0680968401A0002000A13
:101E6000C349884208D2C149E068096800F09DFA78
:101E700021694018A06011E0BC48E168006800F0EA
:101E800094FA009021690098814204D92169009850
:101E9000081AA06001E00020A06000BF0020E06000
:101EA000206101202076801E60623046FFF791FDA0
:101EB00000BF781C00289ED12878697888429AD182
:101EC00000BF0198411EC9B2019100288DD1A348DD
:101ED00001680298814201D00120FEBD0020FCE78C
:101EE000FEB505469D480068401C002835D09B483B
:101EF0000068282148439A4909684018866800F01C
:101F000051FA0290994804682146029800F04DFA6F
:101F1000C01C0190681C002801D1FFF72FFD01981B
:101F2000B04201D2304600E0019804192402240A8C
:101F300020469049086000BF00F034FA00900299F2
:101F4000009800F032FAC71C2046029900F02DFAE2
:101F5000874201D9FFF7F5FD01E0FFF724FDFEBD43
:101F6000FEB50020C0430190804804687B480768A4
:101F70006846FFF750FE0546FFF776FE0646002D41
:101F800005D001AA21460098FFF7F4FE012601982A
:101F9000FFF722FF002800D00126002E02D038468D
:101FA000FFF79EFFFEBD4170704770B502460B46BD
:101FB0005078411C9078884200D1002110788842E6
:101FC00001D1002070BD1960507818267043556803
:101FD0002C182046F6E7FFB581B005460E46174699
:101FE000E900614A126888186946FFF7DEFF044677
:101FF000002C02D1042005B0F0BD012020606660F5
:1020000000F0D0F9A060E760049820610A98606150
:10201000E900554A126888180099FFF7C4FFFFF7D6
:1020200095FD0020E7E7F8B504460E46E1004E4A6C
:10203000126888186946FFF7B8FF0546002D01D1E0
:102040000420F8BD022028606E60E100464A126854
:1020500088180099FFF7A7FFFFF778FD0020F0E749
:1020600038B50446E100404A126888186946FFF70F
:102070009CFF0546002D01D1042038BD03202860B7
:10208000001F6860E100384A126888180099FFF75D
:102090008AFFFFF75BFD0020EFE710B5002036490F
:1020A00008600021344841608160C16000203249ED
:1020B000403908604860FFF76CFD10BD10B5FFF7B0
:1020C0004FFF10BDFFB581B00E4617461C46204697
:1020D0008107890F002901D1012100E00021002999
:1020E00002D1072005B0F0BD002C01D10720F9E78F
:1020F000FFF759FC21490A980860214806701848E2
:10210000046000250CE0002128206843144A12686E
:10211000115028206843124A1268801801766D1CFD
:10212000B542F0DB28207043041903200D490870E4
:102130000D480460183400250CE0E9000A4A1268D2
:10214000881800210170417087704460182179431C
:102150000C196D1C032DF0DB002013E06C24002013
:1021600060240020642400206824002070240020C3
:10217000FFFF7F00401501404011014080240020F6
:102180005C240020C0438B49086000208A49087005
:102190008A490870142000F0D3F803211420FFF7B7
:1021A000ADFB142000F0BEF80198FFF7DEFB00F055
:1021B000F9F883490860002094E770B503460C469F
:1021C00080480068002801D1082070BD002A01D194
:1021D0000720FAE7002B01D10720F6E700211CE0D9
:1021E00028204843774D2D682858002814D1012510
:1021F00028204843734E3668355028204843714D97
:102200002D6840194460282048436E4D2D684019C0
:10221000C26119600020D8E7491C6B4800788142F0
:10222000DEDB0420D1E710B500F092F8012802D0DF
:10223000032804D101E0002403E0012401E002248A
:1022400000BF00BF204610BDFEB504460D46164631
:102250005C480068002801D10820FEBD5A4800787B
:10226000844201D2052D01D20720F6E728206043E1
:10227000544909680858012801D00820EDE72820B2
:1022800060435049096840184068012801D1284638
:1022900000E000200746FFF7C6FF3B462A462146DE
:1022A00000960190FFF797FED7E770B504464548C2
:1022B0000068002801D1082070BD4348007884429E
:1022C00001D30720F8E7282060433E4909680858F1
:1022D000012801D00820EFE7FFF7A5FF05462146BA
:1022E000FFF7A1FEE8E710B536480068002801D1E5
:1022F000082010BDFFF797FF0446FFF7B1FEF8E78F
:1023000010B5044600F04EF82060002010BD70B5F6
:1023100005460E4614463146284600F046F8206031
:10232000002070BDC206D20E01219140274A1160E3
:102330007047C206D20E01219140254A11607047B4
:10234000C206D20E01219140214A803211607047AD
:1023500010B520484068C105C90D002920D00A46A3
:10236000103A104600280DDA1A4B1C330407240FCC
:10237000083CA408A4001B598407E40EE3401B0694
:102380009B0F0BE0114B032424021B198408A400AB
:102390001B598407E40EE3401B069B0FD8B210BD07
:1023A0000420FCE70C48406870470246501A0002BF
:1023B000000A70476C2400207C2400207D2400202B
:1023C00070240020602400205C24002000E100E054
:1023D00000E200E000ED00E00015014003460029A6
:1023E00001D10E207047002A03D0501E1040002853
:1023F00001D00920F6E71960501E988000209860EF
:10240000D86000BFEEE70246D0689368C01A938890
:10241000984209D8D0689388184013681954D06836
:10242000401CD060002070470420FCE70246D068C2
:102430009368C01A0AD09068938818401368185C93
:1024400008709068401C9060002070470520FCE7F1
:102450000146C86888600020704700000020F749E6
:1024600008600120F649C86048600020F54908600E
:1024700070471CB50120F249C860F049086003208C
:1024800000906846F049096888471CBD08B5EB48CC
:102490000068022802D00120E94988606946EB48BB
:1024A000FFF7C4FF002802D0FFF7E3FF08BD80203C
:1024B000E749886068460078E249C8610220DF4940
:1024C00008608020E249486000BFEFE710B5DF48B0
:1024D000C068DE498968401A02D0FFF7D7FF01E0E3
:1024E000FFF7C7FF10BD10B5D4480068012802D01F
:1024F000022807D102E0FFF7B1FF04E00320CF4933
:10250000086000E000BF00BF10BD10B5CB480068F8
:10251000002802D0032817D112E00420C94908601E
:102520000120C7490860C948C068C8498968401A7D
:1025300002D0FFF7ABFF02E00120C049086004E0D1
:102540000220BE49086000E000BF00BF10BD10B50A
:10255000BA480068012807D0022804D0032806D111
:10256000FFF77CFF04E000BFFFF7B0FF00E000BF13
:1025700000BF10BD10B5B1480068012801D1FFF7B8
:1025800085FF10BD10B5FFF769FF10BD10B50446FB
:10259000230000F07FFF0504070D0A101300FFF76A
:1025A000A2FF0CE0FFF7B1FF09E0FFF7D0FF06E064
:1025B000FFF7E0FF03E0FFF7E5FF00E000BF00BF2B
:1025C00010BDF8B504460D4628462040A1490968CB
:1025D000084000280FD069469F48007800F01BFC97
:1025E0000646002E00D0F8BD009804402846009909
:1025F0008843054600BF974800682840002803D05C
:102600000120FFF7C3FF07E0924800682040002840
:1026100002D00020FFF7BAFF00BFE4E71CB58F48E7
:102620008068002822D000208C4988608548806915
:10263000C1B28B48FFF7E7FE0446002C07D001200B
:102640000090019468468049096888470DE08448F5
:10265000C06883498968401A012806D1002000908B
:10266000684679490968884700BF00BF7B48C06950
:10267000002805D000207949C8610320FFF786FFB4
:102680007648406A00280ED00020744948626D48A0
:1026900080380468046002200090019468466A490A
:1026A0000968884700BF1CBD0420664908600020F7
:1026B0006A498860C86163484030C06A4008400089
:1026C00060494031C8620020C0435E4988600861AB
:1026D00001205B498860086070470421594A1160F5
:1026E00000215E4A9160D16156494031C96A012298
:1026F0001143544A4032D162C178524A1161817803
:10270000916001214E4A916011607047FFB585B01C
:1027100004460F460E9D0020039002904749086032
:10272000494907980860002F02D1072009B0F0BD81
:10273000B88882B24A483968FFF750FE0646002E34
:1027400001D03046F2E7B88982B24048B968FFF755
:1027500045FE0646002E01D03046E7E7607800F0DF
:102760006EF9207800210191019989000522120754
:1027700007231B02D2188300D15000BF6078314973
:10278000C86020784861E0684862207A002804D058
:102790000E202C494031C86203E000202949403115
:1027A000C8626068022848D1A07800F048F9A17892
:1027B000012088402B4948600020C043214908611E
:1027C000A07888601F484030C06A012108431D4935
:1027D0004031C862E178012088401E490860E078F5
:1027E000002203210092019101990904009A9200AC
:1027F00011430522120707231B02D2188300D15070
:1028000000BFE178012088400390E17801208840F2
:1028100002902888002829D1134B0F48029A039967
:1028200000F022FA0646002E01D030467EE70A4824
:1028300000780002FF30288021E042E09024002050
:1028400000200040002500408C2400202429002086
:10285000002300408824002085240020002100401F
:102860001429002000050050C32502002888FF28F5
:1028700001DA07205AE7288800127549087004A970
:102880007348007800F0C7FA0646002E01D03046A3
:102890004CE76F48007800F02CFA0646002E01D075
:1028A000304643E7E1780120884004990840002839
:1028B00003D10120FFF76AFE28E00020FFF766FE43
:1028C00024E06068012811D12888002807D16148D8
:1028D000007828805F480078401C5E4908702046D8
:1028E000FFF7FBFE01205C4908600FE02888002804
:1028F00007D158480078288056480078401C554930
:102900000870FFF7D1FE0120534908600020C04342
:1029100052498860A1208000486002200121814046
:102920004F4A116000BF089900F052F802200121BF
:1029300081404C4A116000BF0020F7E610B5044604
:1029400021464948FFF772FD10BD70B50446214687
:102950004648FFF758FD05460220FFF717FE2846B8
:1029600070BD10B54048FFF773FD0446002C01D040
:10297000204610BD3D48FFF76BFD0446002C01D0FA
:102980002046F6E70020F4E70146334800680028B7
:1029900001D0012000E0002008600020704770B5E1
:1029A0000446FF2C04DA0420FFF7F0FD002070BD80
:1029B0002004050E26480078854201D00720F6E75E
:1029C0000420FFF7E3FD2248007800F003FAEEE769
:1029D00010B5002819DA264A03071B0F083B9B088D
:1029E0009B00D2588307DC0EFF23A3409A438B073A
:1029F0001B0E8407E40EA3401A431D4B0407240F4B
:102A0000083CA408A4001A5118E0164A03231B022C
:102A1000D21883089B00D2588307DC0EFF23A34003
:102A20009A438B071B0E8407E40EA3401A430D4BF9
:102A3000032424021B198408A4001A5110BD01218B
:102A40000522120707231B02D2188300D1507047BA
:102A500085240020842400209024002000230040AE
:102A600080E200E000E100E0142900202429002099
:102A70001CED00E0F0B502460C46002037E00123D3
:102A80008340194623460B40002B2FD0D5680D40BC
:102A9000002D05D101235B04D5680D43D56004E00A
:102AA00003231B04D5688D43D56005252D07072614
:102AB0003602AD198600AD5903263604B543052606
:102AC000360707273F02F6198700F55105252D0720
:102AD00007263602AD198600AD591D430526360777
:102AE00007273F02F6198700F55100BF401C202838
:102AF000C5D3F0BDF0B585B0EF4805690020EF49BA
:102B0000C86300263FE014207043ED49096844186B
:102B10000120B040EB4909680840002831D0E06846
:102B2000C043684021680840074639462046FFF701
:102B3000A1FFE148006968400390039800280ED087
:102B400003980543E068C04368402168084000904E
:102B500020460099FFF78EFF0098074300BFA0684A
:102B6000A84338400190606828403840029001999D
:102B700002980843002803D02269019902989047DF
:102B800000BF701CC6B2D04800788642BBDB05B0DF
:102B9000F0BD10B50146002029E014224A43C84B7D
:102BA0001B689A58012383401A40002A1ED0052230
:102BB000120707231B02D2188300D25803231B04D9
:102BC0009A4305231B07072424021B1984001A516A
:102BD0000522120707231B02D2188300D2580523AF
:102BE0001B07072424021B1984001A51401C2028AB
:102BF000D3D310BD70B505460C46002C01D107207B
:102C000070BD20468107890F002901D1012100E014
:102C10000021002901D10720F2E7A9480460AB4850
:102C200005700020A8490870A6490860A7480078E8
:102C3000142250430146A248006800F0A8FA002080
:102C4000C043A3498860062001218140A14A116048
:102C500000BF012100F0F9F80620012181409E4AC1
:102C6000116000BF0020CBE7F8B504460D461646BC
:102C70001F4693480068002801D10820F8BD002FA6
:102C800001D10720FAE790480078904909788842F6
:102C900001DB0420F2E7284630438B4909781422EF
:102CA0005143874A1268505087480078142148439E
:102CB00083490968401845608348007814214843D7
:102CC0007F490968401886607F480078142148438E
:102CD0007B490968401807617B48007820707A4872
:102CE0000078401C784908702078FFF752FF0020D8
:102CF000C4E7F0B5024672480068002801D10820F8
:102D0000F0BD71480078824201DB0720F8E700201F
:102D10006A4BD863684804696A480068002802D191
:102D200058066B4B586001209040664B1B68184357
:102D3000644B1860002314205043614D2D684019E6
:102D4000C360002142E001238B4018461423534303
:102D50005B4D2D68EB580340002B36D025460540CF
:102D6000002D02D003231B040EE001235B04142575
:102D70005543534E3668AD19ED6805431426564346
:102D80004F4F3F68F619F56005252D0707263602D7
:102D9000AD198E00AD5903263604B5430526360716
:102DA00007273F02F6198F00F55105252D07072645
:102DB0003602AD198E00AD591D430526360707278B
:102DC0003F02F6198F00F55100BF491C2029BAD3E4
:102DD000002095E710B5044639480068002801D165
:102DE000082010BD38480078844201DB0720F8E74E
:102DF0002046FFF7CEFE0120A040324909688143FA
:102E0000304801600068002803D10120C007304924
:102E100088600020E5E710B50246294800680028D0
:102E200001D1082010BD28480078824201DB07202C
:102E3000F8E714205043224C246803191E48006907
:102E40001C68204008600020ECE710B5002819DA63
:102E5000224A03071B0F083B9B089B00D25883079D
:102E6000DC0EFF23A3409A438B071B0E8407E40E5E
:102E7000A3401A43194B0407240F083CA408A400DC
:102E80001A5118E0144A03231B02D21883089B002E
:102E9000D2588307DC0EFF23A3409A438B071B0EF7
:102EA0008407E40EA3401A430B4B032424021B198E
:102EB0008408A4001A5110BD000500504061004074
:102EC0009C24002094240020992400209824002091
:102ED0000063004080E200E000E100E01CED00E063
:102EE00070B5064600F058F9056830460B30C40846
:102EF000E400B44201D8002070BD68682A4600286A
:102F000018D00168A14211D30B46214608318B42EB
:102F100008D3436801194B6003681B1B0B605160A9
:102F2000046001E041685160001D70BD02464068C8
:102F30000028E6D12146284600F036F90028DCD1E9
:102F400070BD70B50446051F00F026F90068002C1E
:102F50001AD0446801E020466468002C01D0AC42DD
:102F6000F9D301680A18AA4204D12A6805468918CB
:102F7000016000E0456028684119A14205D16168FF
:102F8000696021684018286070BD6C6070BD0000E9
:102F90000FB41CB5074B06AA7B4469460090059800
:102FA00000F0A9F90020694600F0B8F91CBC08BC83
:102FB00004B0184781030000F8B50E46044600200F
:102FC00020622046E1688847002829D0252802D0C1
:102FD0006268A16820E0E168204600278847050074
:102FE0001ED028464138192802D80127FF02203573
:102FF0003246204627602946FDF7A0F8002808D071
:10300000012804D0F61DF608F6000836D9E7361D6B
:10301000D7E762682846A1689047206A401CCFE73E
:10302000206AF8BD70B50C460546012A05D02878FF
:10303000800600D5EA69002302E0012305E05B1C5D
:10304000934202D2E05C0028F9D1A869E618C01AC0
:10305000A861286AC01828622846C046C04604E015
:103060006A682078A968641C9047B442F8D328465F
:10307000C046C04670BD000070B504460D462146EE
:103080001068C046C0462188090502D50F4A7A4417
:1030900002E00E4A7A440E3223460021243305E032
:1030A00006070009360F965D5E54491C0028F7D1CB
:1030B00020780023000705D5702D03D0002901D00A
:1030C00002231132204600F0B8F870BD420400001F
:1030D000F8B5042A2CD3830712D00B78491C03704F
:1030E000401C521E83070BD00B78491C0370401CF8
:1030F000521E830704D00B78491C0370401C521EDB
:103100008B079B0F05D0C91ADF002023DE1B08C9DF
:103110000AE0FDF757F8F8BD1D4608C9FD401C46FA
:10312000B4402C4310C0121F042AF5D2F308C91A68
:10313000521EF0D40B78491C0370401C521EEAD476
:103140000B78491C0370401C012AE4D409780170F3
:10315000F8BD01E004C0091F0429FBD28B0701D58B
:103160000280801CC90700D00270704700290BD074
:10317000C30702D00270401C491E022904D38307F2
:1031800002D50280801C891EE3E70022EEE70022C0
:10319000DFE7704770477047004870473C290020C0
:1031A000704770477047704738B504460A4600209C
:1031B0006946C046C046002805D002462046009910
:1031C00000F0CCF8012038BD10B5012000F0E0F887
:1031D00010BDF8B5C046C046054600200C4610207C
:1031E000C0460646A819A0420DD9324669460020BD
:1031F000C046C046070001D100F0CAF80098A042BE
:1032000000D00546C419FFF7C7FFF61D0746056045
:10321000F008C0004619284600F008F8B44204D06F
:1032200031463868A21B00F099F8F8BD0021016012
:1032300041608060704710207047FFB504460D461E
:1032400081B0243000902168880604D51022E069FE
:103250009143216000E00120A84201DD471B00E00E
:1032600000270498A1697A191018081AA06120781B
:10327000C00602D42046C046C046002608E0039897
:103280006268A168805D9047206A401C761C2062BD
:1032900004988642F3DB2078C0060AD52046C04653
:1032A000C04606E06268A16830209047206A401C52
:1032B000206238467F1E0028F4DC07E00098626830
:1032C000A168405D9047206A401C206228466D1E20
:1032D0000028F3DC2046C046C0462078000602D510
:1032E000022005B0F0BD0120FBE7000001694A1C87
:1032F00002610878704700B58FB0029100210591F6
:103300000549019379440391114604906846FFF7FB
:1033100053FE0FB000BD0000E5FFFFFF0A6810700C
:10332000521C0A60704710B54369002B02D0C0469A
:10333000C04601E0FFF776FE012010BD127801467D
:1033400024310A7000224A700122ECE71168002241
:10335000D243E8E7004870473429002010B50346FF
:10336000406801E003464068002801D08842F9D354
:103370001868C3188B4206D0CB1CD808C000001DAB
:10338000411A521A0146081D0A60FFF7DAFD10BD06
:1033900010B500F031F800F029F810BD70477546FF
:1033A000FFF7D8FFAE46050069465346C008C00087
:1033B000854618B020B5FCF731FF60BC00274908EE
:1033C000B6460026C0C5C0C5C0C5C0C5C0C5C0C5BD
:1033D000C0C5C0C5403D49008D46704710B5044684
:1033E000C046C0462046FCF7C7FE10BD10B50028F9
:1033F00001D000F029F810BD10B5012805D000213A
:1034000003A000F027F8012010BD09A1F8E7000093
:1034100053494752544D454D3A204F7574206F66BD
:103420002068656170206D656D6F72790000000025
:103430003A2048656170206D656D6F727920636F09
:10344000727275707465640001491820ABBEFEE7A6
:103450002600020070B505460C460A2000E06D1CEF
:1034600000F012F8002D06D028780028F7D102E0ED
:10347000641C00F009F8002C02D020780028F7D155
:103480000A2000F001F870BD08B5694608700320F5
:10349000ABBE08BD30B47446641E2578641CAB42D4
:1034A00004D3635D5B00E31830BC18471D46F8E7A2
:1034B0000100000000020000000000000000000009
:1034C00000F0EB009ECADC240EE5A9E093F3A3B55F
:1034D0000000406E303132333435363738394142AE
:1034E0004344454640305800303132333435363766
:1034F0003839616263646566403078001C350200CB
:1035000000240020A000000004010200BC350200DD
:10351000A0240020F8140000200102000024F40080
:10352000000000000000FFFF00000000000032006B
:10353000010000000000000000000000000000008A
:10354000000000000000000000000000000000007B
:10355000000000000000000000000000000000006B
:10356000000000000000000000000000000000005B
:10357000000000000000000000000000000000004B
:10358000000000000000000000000000000000003B
:10359000000000000000000000000000000000002B
:1035A000010000000000000000000000000000001A
:0C35B0000000000000000000000000000F
:04000005000200C134
:00000001FF
